:1000000000000420750300005D0300005F03000092
:1000100061030000630300006503000000000000AE
:100020000000000000000000000000006703000066
:1000300069030000000000006B0300006D03000076
:100040006F0300006F030000D10E0000891E000046
:100050006F0300006F030000E51B00006F0300004A
:100060006F0300006F0300006F0300006F030000C8
:100070006F0300006F0300006F0300006F030000B8
:100080006F0300006F0300006F0300006F030000A8
:100090006F0300006F0300006F0300006F03000098
:1000A0006F0300006F0300006F0300006F03000088
:1000B0006F0300006F03000000000000000000005C
:1000C0006F0300006F0300006F030000991E000023
:1000D0006F0300006F0300006F0300006F03000058
:1000E0006F0300006F0300006F03000000000000BA
:1000F000000000006F03000000000000A91E0000C7
:1001000000000000000000000000000000000000EF
:1001100000000000000000000000000000000000DF
:1001200000000000000000000000000000000000CF
:1001300000000000000000000000000000000000BF
:1001400000000000000000000000000000000000AF
:10015000000000000000000000000000000000009F
:10016000000000000000000000000000000000008F
:10017000000000000000000000000000000000007F
:10018000000000000000000000000000000000006F
:10019000000000000000000000000000000000005F
:1001A000000000000000000000000000000000004F
:1001B000000000000000000000000000000000003F
:1001C000000000000000000000000000000000002F
:1001D000000000000000000000000000000000001F
:1001E000000000000000000000000000000000000F
:1001F00000000000000000000000000000000000FF
:10020000354936480A1A02D0072291438D463449AF
:1002100034480A1A06D00722914381F30988022242
:1002200082F3148830483149314A00F044F83148AB
:100230003149324A00F03FF831483249324A00F041
:100240003AF832483249334A00F035F832483349F7
:10025000334A00F030F833483349344A00F02BF881
:1002600033483449344A00F026F8344834490022EF
:1002700000F02CF833483449002200F027F83348C6
:100280003349091A082902DB002202604160314A21
:1002900090471F481F49884205D00268043003B4C4
:1002A000904703BCF7E700208646EC46002000217B
:1002B000294A9047FEE7884207D0521A05D00378B2
:1002C00001300B700131013AF9D17047884202D0F8
:1002D00002700130FAE770470000042000E00320BC
:1002E00000000420000004209440000000000020D2
:1002F0004C000020D0030000D00300003C3F000071
:10030000944000000000002000000020883F000012
:10031000883F0000883F0000883F0000883F0000C1
:10032000883F0000883F0000883F000094400000A4
:10033000E04000004C0000204C0000204C00002059
:100340007C1300207C1300207C1300207C130020F1
:100350007C3300209D030000512A0000FEE7FEE7E9
:10036000FEE7FEE7FEE7FEE7FEE7FEE7FEE7FEE765
:1003700000F002B8FFF7FCBF0F484FF007018843B9
:1003800085460E4880470E48016841F470010160BF
:10039000BFF34F8FBFF36F8FFFF732BF09480A4992
:1003A0000A4A884207D0521A05D0037801300B70F0
:1003B0000131013AF9D17047000004201D230000EB
:1003C00088ED00E0883F00000000002000000020D1
:1003D000037813F0040216D003F00303012B03D0BB
:1003E000022B09D0012070470A6800880232C0F34E
:1003F000831002440A60F5E70B684288023303EB7E
:1004000092130B60EEE71046704700002DE9F04FA5
:10041000DFF810A10F4685B00446861C0020154663
:1004200000F0C6FBDAF804203A60DAF8083003F589
:1004300080739B1A0AF21C470AF583690AF2144872
:10044000B34219D30020002D68D004F00F039B01A4
:1004500043F0050363F30F00DAF80430DAB2033235
:1004600033444AF822000020CAF8043000F0A2FB0E
:10047000012005B0BDE8F08F0121384600F0BFFB38
:10048000484600F0D4FB404600F0D1FBDAF8080003
:100490000090C0B203300AEB80006946FFF798FF76
:1004A000009B30BBDAB20AEB8202D16801919A1C40
:1004B0000133DBB20AEB83030092D3F80CB001F0F6
:1004C0000303012B22D0022B15D08346404600F0B7
:1004D000B1FB10B1009BCAF808305946384600F00D
:1004E0008EFBDAF80830DAF8042003F580739B1AE3
:1004F000A6E7D8B2CEE7BDF80630C3F389130333BD
:100500004FEA1B4B02EB93030093DFE7BDF8043087
:10051000C3F383134FEA1B4B1344F5E7A40544F0E0
:10052000060099E71C01002070470000034BD3E947
:100530000130C31A58425841704700BF1C010020C7
:100540002DE9FF41FFF7F2FF0546002840F0E98062
:10055000754CC4F81804BFF34F8FA3680093DBB247
:10056000033304EB83006946FFF732FF009B18B1A9
:10057000D4F81824002A5AD0DAB2991C013304EBBB
:100580008202DBB204EB8303D268DB68029302F0E1
:100590000303022B0192009154D1BDF80630634849
:1005A000C3F38917502F3E4628BF502606F1080195
:1005B00066F38F13C1F30901ADF8063000F0CBFBF1
:1005C0000546002800F0988000F0F4FB0023082284
:1005D00001A9284600F000FC0099CB43DBB20133AF
:1005E000C9B20331B6EB830F4FEA830204EB8101FA
:1005F00025D95FFA82F80823A6EB0806284600F002
:10060000EBFBF6B208F10803494903F0FC0332465C
:10061000284600F0E1FB009B033703EB97070097A8
:10062000D4F81834002B43D1D4F8106453E0626836
:100630009A4294D8A260284604B0BDE8F08108230D
:100640003246E5E7012B57D1BDF804303748C3F3F4
:100650008311062928BF062161F38913023101F0B5
:100660000F018900ADF8043000F075FB0546002845
:1006700042D000F09FFB0023082201A9284600F089
:10068000ABFB0026BDF80420C2F38312B3009642F0
:1006900003F10803C4D200994A1CC9B20331009285
:1006A00004EB81010422284600F096FB0136E9E7BD
:1006B000284600F083FBFFF739FF80F00100C5B248
:1006C000B9E7F3685B7923B1336829461B68304684
:1006D0009847F3681E68002EF3D1284600F06EFBA1
:1006E000304600F065FAD4F818340BB9009BA360CB
:1006F000002000F05FFADEE7D4F8104454B90D4B47
:100700000D480E49C01AC008000440F0020000F075
:100710005FF8D0E7236820469B689847E3681C6829
:10072000ECE7002587E700BF1C010020743F0000B4
:10073000280100203C3F0000643F0000883F00008B
:100740002DE9F34704460E46924601A901221846B8
:100750009946FFF75BFE1C4F10B3019D4FF0000858
:10076000AA1CC84508EB020125D11848002100F059
:1007700023FA80F31000000440EA1440E4006B1CEC
:1007800004F03804DBB2EDB244F0010407EB83035C
:10079000033544EA881444EA8624D86047F82540A3
:1007A0003B781BB1FFF7CCFE0028FBD1FFF7BCFE66
:1007B00002B0BDE8F087C9B207EB81015AF82830D2
:1007C000CB6008F10108CCE71C01002038050020AF
:1007D00000231A46FFF7B4BF38B5084B0125D3F8FC
:1007E00010441D7004B938BDE3685D71236820466C
:1007F0005B689847E3681C68F4E700BF1C010020B1
:10080000074B1B5C1F2B86BF064903F01F034FF0ED
:10081000A041012202FA03F3C1F80835704700BF76
:100820009D3F00000003005008B50020FFF7E8FFDF
:100830000120FFF7E5FF0220FFF7E2FFBDE80840D7
:100840000320FFF7DDBFC20710B504460CD54FF0FB
:10085000A0430322C3F83427C3F83827C3F83C2742
:10086000C3F84027FFF7E0FFA3070AD54FF0A043E6
:100870000C22C3F82C27C3F83027C3F86027C3F82D
:10088000642710BD1FB50021039001AA44F20100A6
:10089000CDE9011100F004F805B05DF804FB00009B
:1008A00038B572B6FFF798FFFFF74AFE0028FBD174
:1008B000104B114C114D1249E41AE408240444F081
:1008C0000100FFF785FFD5F8F030DB0700D500BE4B
:1008D0000C4944F00200FFF77BFFBFF34F8FEA683B
:1008E000094B02F4E0621343EB60BFF34F8F00BF8C
:1008F000FDE700BF3C3F0000643F000000ED00E06A
:10090000A13F0000AD3F00000400FA0549B152B11B
:10091000531E1A4007D1826001608380C260104676
:1009200070470E2070470920704710B58468C26870
:100930008388121B934208D3C26813400268D154C3
:10094000C3680133C360002010BD0420FCE7826847
:10095000C3689A420AD08268838813400268D35CD5
:100960000B70836801338360002070470520704757
:100970000648074A03780749D35C012213B10430C3
:1009800000F042BF0C3000F0EBBC00BF00000020C4
:100990007C050020640500200648074A03780749C3
:1009A000D35C012213B1043000F0E0BE0C3000F043
:1009B00087BC00BF000000207C05002065050020EA
:1009C00037B50578012D0DD0022D30D075B91F49EE
:1009D0001F48FFF7BCFF002834D103B0BDE830400A
:1009E000FFF7DABF037A1BB9FFF7C2FF03B030BDD0
:1009F0004368184C19782046FFF797FF80B18DF8AF
:100A000000500190144B68461B689847A168E36842
:100A1000A2885B1A9A42E7D2104B01221A70E5E7CE
:100A2000A268E3689A42F1D08DF80000EAE7C36853
:100A30008DF800500193FFF79BFF074B68461B683A
:100A40009847D3E703238DF80030F6E765050020CB
:100A500054050020400500203C05002050050020E2
:100A6000F0B51F46234B89B004461A600D46002995
:100A70003DD08A8820480968FFF748FF002834D114
:100A8000AA89A9681D48FFF741FF00282DD11C4EF7
:100A90000FCE6D460FC596E80F0085E80F0063691D
:100AA0000693237C174A18488DF81C70003B18BF2A
:100AB00001238DF81430637C002B14BF0E23002318
:100AC0008DF81530E3680293A368039323680193BC
:100AD00069466368009300F0BDF930B90B4B18709C
:100AE0002368013301D0FFF743FF09B0F0BD0720B1
:100AF000FBE700BF3C050020400500205405002016
:100B0000BC3F0000C109000000000020500500208B
:100B100070B5084D014608482E78FFF718FF0446C7
:100B200036B100232B70FFF723FF08B1FFF7AAFEB1
:100B3000204670BD500500204005002010B501463C
:100B40000E48FFF7F2FE0446A8B90D480D4A037897
:100B5000D35C63B1043000F0FDFD60B90A49074879
:100B6000FFF7F5FE38B9BDE81040FFF715BF0C30B0
:100B700000F09AFBF1E7204610BD00BF54050020AD
:100B8000000000207C0500206505002072B6024AA6
:100B9000136801331360704768050020034A136827
:100BA000013B136003B962B6704700BF68050020BF
:100BB000FFF7ECBFFFF7F2BF10B5034653E8000F95
:100BC0000A4643E8002494F0000FF7D110BD10B599
:100BD000034653E8002F42EA010043E8000494F082
:100BE000000FF6D110BD10B5034653E8000F00EA20
:100BF000010243E8002494F0000FF6D110BD10B5B7
:100C0000034653E8002F02EB010043E8000494F090
:100C1000000FF6D110BD10B5034653E8002FA2EB2C
:100C2000010043E8000494F0000FF6D110BD01214B
:100C3000FFF7CDBF0021FFF7D6BF38B5044600202F
:100C4000FFF7B6FF226863681168994213D9481EFE
:100C5000106011F8013CE568218A01FB0355A36887
:100C600011791B1ADBB2994200D213710020FFF7F1
:100C7000A1FF284638BD0025F8E738B50546002015
:100C80000C46FFF795FF2A681368591C1160E96844
:100C9000641A298AB4FBF1F41C70BDE838400020C6
:100CA000FFF788BF2DE9F84FB0F806A04579D2F8D4
:100CB00000B09DF828900AFB05F5043D88460BEB33
:100CC0000301A94203F1040488BFA5EB030BB4FBA5
:100CD000FAF607460AFB1644C2F800B04EB9AAEB72
:100CE00004055D4528BF5D46BBF1000F04D1BDE89A
:100CF000F88F3F68013EF1E7043408EB06003C44FE
:100D00002A46B9F1000F0DD02146ABEB050B03F0DD
:100D1000B9F8DA452E443F6855464FF0000428BF25
:100D20005D46E1E701462046EFE7F8B54679014622
:100D3000721E0546002393422D6803D30024A64269
:100D400002D8F8BD0133F6E70F682846FFF795FF94
:100D500001343946F3E72DE9F843068ACD1C0746EE
:100D6000FFF76BFF043E35440446B5FBF6F5F0B1E2
:100D70004FF48073EDB28380C680013D07608146E9
:100D80004FF00008A84512D23846FFF756FF064636
:100D900048B163790133637108F10108C9F80000B3
:100DA00007608146EEE72046FFF7BFFF3446204646
:100DB000BDE8F88301210430FFF721BF10B5012100
:100DC00004460430FFF727FFC0B220B92046BDE833
:100DD0001040FFF7AABF10BD1FB50392002200927A
:100DE00003AAFFF75FFF05B05DF804FB1FB50378AA
:100DF0008DF800304368019383688DF80830C3682C
:100E0000054A0393054B684653F8213052F82110E8
:100E1000984705B05DF804FB6C05002074050020C0
:100E20001FB503788DF800304368019383688DF80F
:100E30000830C368054A0393054B684653F82130D0
:100E400052F82110984705B05DF804FB6C050020AE
:100E500074050020F0B5194B90F800C0DFF86CE085
:100E600043F82C20164B16460A6943F82C204B7F7A
:100E70000EF80C300C4607460FCC89B06D460FC5F6
:100E800094E80F0085E80F003B78CDF810C01EF8FD
:100E900003304BB1002E0B4A694608BF3246381D5D
:100EA00000F07CFB09B0F0BD002E074A694608BF80
:100EB000324607F10C0000F027F9F3E77405002033
:100EC0006C050020ED0D0000210E00007C050020C7
:100ED000014B1B68184700BF8005002038B50B4B3D
:100EE00098420C4601D0002038BD0020FFF760FE7C
:100EF000074B1D7915B901221C601A710020FFF7FC
:100F000059FE002DEFD01120EEE700BF0020004079
:100F100080050020034B984201BF034B00221A605A
:100F20001A717047002000408005002000234350C4
:100F300082B043580193019B02B070470A4610B536
:100F40004FF48E71FFF7F2FF136A9168C95C136A60
:100F500001331362C0F81C1510BD024608B50068C5
:100F60004FF49271FFF7E2FF10684FF48471FFF7BE
:100F7000DDFF136801221A6008BD8B690A4610B5AF
:100F80004FF4847123B9FFF7D1FFD0F8183510BDA5
:100F9000FFF7CCFF536AD168D0F81805C854536ADC
:100FA00001335362F3E700001FB501238DF80030D1
:100FB000044BCDE90110D3E900126846904705B013
:100FC0005DF804FB8805002030B54D4DD5F804339D
:100FD0009A0585B051D5D5F82431002B4DD04FF46A
:100FE00092712846FFF7A2FF4FF40173C5F808334A
:100FF000444B93F829200AB901226A604049022231
:101000008DF80020D1F88024C1F8802403929A69D9
:101010000292DA6801920022C3E906226846D3E907
:10102000001290473648D0F81C315BB1354A5169FF
:10103000136A99424DD992F82830002B49D11146B4
:10104000FFF77CFF2E48D0F84431002B56D04FF4E8
:10105000A271FFF76BFF2B4B93F829200AB10122F5
:1010600002609A69002A49D0586AD96800229A61B8
:1010700005B0BDE83040FFF797BFD5F804335B07F4
:10108000D0D5D5F80831002BCCD01E4C1C482146B9
:10109000FFF773FF636AA2699A42C3D1E369E1680B
:1010A0004BB1A3612369E3600023606AE36163627B
:1010B000FFF77AFFB6E794F829300BB901236B608C
:1010C0000F4B4FF40172C3F808230023606AA36139
:1010D000EEE70B484FF48E71FFF728FF5369002BA2
:1010E000B0D051690291002391688DF800300191D0
:1010F00053616846D2E900139847A3E705B030BDB5
:1011000000200040880500202DE9F843604D90F84C
:1011100004802C2303FB0853064693F82A300C4620
:101120009146002B40F0AF805A490068FFF7D6FE89
:101130000746002840F0A9802268531C10D01F2ABF
:1011400087BF554902F01F0313464FF0A04101200D
:10115000984003F5E073C1F80805032041F8230027
:101160006168481C0DD01F298BBF01F01F030B467F
:1011700049484FF0A04003F5E0734FF0000C40F8F1
:1011800023C03068A369C0F8243594F814C0637D87
:10119000BCF1010F4CEA0303C0F86C35C0F814151C
:1011A000C0F80C252BD1A368591C0DD01F2B8BBF69
:1011B00003F01F021A4638494FF0A04102F5E072D1
:1011C0004FF0000C41F822C0E1684A1C13D01F29DF
:1011D00087BF314A01F01F0C8C464FF0A0424FF000
:1011E000010E0EFA0CFE0CF5E07CC2F808E54FF09B
:1011F000030E42F82CE0C0F80815C0F810352C2278
:1012000002FB08F2AB18C3F804902369AB50B9F1A4
:10121000000F20D04FF48E71247FFFF787FE4FF42C
:10122000A2713068FFF782FE32681C4BC2F80433AB
:10123000130B42F307326101002AC9B21EDB1848C2
:10124000841884F800130121520903F01F0301FAE6
:1012500003F340F8223033680422C3F800252C231E
:1012600003FB08530022C3E9062283F829205A61B0
:10127000012283F82A203846BDE8F883094A03F0A2
:101280000F03D154E7E70827F5E71127F3E700BF7D
:1012900088050020C90F00000003005080000200F4
:1012A00000E100E014ED00E00279044B2C2101FB89
:1012B00002335869003818BF0120704788050020A4
:1012C0002DE9F84F064690F8048089469246FFF7CC
:1012D000EBFF044600283CD1204F2C2508FB057B62
:1012E0004FF48E71CBF814A0CBF80890CBF8200007
:1012F0008BF828003068FFF719FE306801238360FF
:101300005946FFF71BFEDBF804305D461BBB306817
:10131000DBF814402B6A9C4211D83368D3F81C21A7
:10132000002AFBD00122DA6000202C2303FB08777F
:1013300000237B61BDE8F88F95F828303BB9D0F8E1
:101340001C31002BF8D05946FFF7F8FDE2E70F20DB
:10135000EBE71120EEE72046ECE700BF8805002010
:101360002DE9F0473A4D07792C2303FB0753064636
:101370005C6824B103684FF40170C3F808032C23A0
:1013800003FB0753986950B1D869002841D024B1B4
:1013900033684FF40172C3F80423112436E09A61D4
:1013A000D9605862D8612C2303FB075393F8293086
:1013B0001BB910B93046FFF7D0FD4FF02C0808FBE1
:1013C000075A3068DAF80430002B37D14FF4A27195
:1013D000D046FFF7ABFD3068D0F82491D0F8083143
:1013E000D0F84441CBB914B9B9F1000FF3D02C2394
:1013F00003FB07550023AB61B9F1000F24D12CBBCF
:1014000095F8291033680122B1B11A602046BDE871
:10141000F0871961DA610120C5E7B9F1000FE6D163
:10142000002CE4D14146FFF7A8FDDAF82430DAF8C1
:1014300018209A42CFD8DAE75A60E7E74FF40173F1
:10144000C0F804330024E1E70324DFE70F24DDE7DD
:10145000880500200023435082B043580193019B2C
:1014600002B070471FB501238DF80030044BCDE961
:101470000110D3E900126846904705B05DF804FBFF
:10148000B40500207FB5434AD2F82461002E60D015
:1014900010464FF49271FFF7DDFF02238DF8003004
:1014A000D2F88034C2F880340393D2F83C350293EA
:1014B000394BDA6801920022C3E906226846D3E973
:1014C000001290473348D0F8443173B14FF4A27101
:1014D000FFF7C0FF304B9A693AB10022C3E90622F8
:1014E000D968D0F83C05FFF7BDFF2A48D0F8203175
:1014F000ABB14FF49071FFF7ADFF0123C360264BF2
:101500005A6962B1D0F84C150291002299688DF8A1
:10151000002001915A616846D3E9001290471D48A6
:10152000D0F858319BB14FF4AC71FFF793FF1A4BD1
:101530005A6962B1D0F84C150291002299688DF871
:10154000002001915A616846D3E90012904704B027
:1015500070BDD2F81031002BB4D04FF48871104612
:10156000FFF778FF0C4BD2F83C0599698842A9D166
:10157000DC69D96864B1D2F8005225F02005C2F8C0
:1015800000521A699C61DA60DE61FFF76BFF99E730
:101590009C61FAE700200040B40500202DE9F843E3
:1015A000664E90F80480242303FB0863044693F8F6
:1015B00020300D469146002B40F0BC806049006809
:1015C000FFF78CFC0746002840F0B68029684B1CCA
:1015D00010D01F2987BF5B4A01F01F030B464FF055
:1015E000A0420120984003F5E073C2F808050320EB
:1015F00042F823006A68501C0DD01F2A8BBF02F0EE
:101600001F0313464F484FF0A04003F5E0734FF01F
:10161000000C40F823C02068AB69C0F8243595F869
:1016200014C06B7DBCF1010F4CEA0303C0F86C35AC
:10163000C0F80C15C0F814252BD1AB68591C0DD07F
:101640001F2B8BBF03F01F021A463E494FF0A041EB
:1016500002F5E0724FF0000C41F822C0E9684A1C24
:1016600013D01F2987BF374A01F01F0C8C464FF05B
:10167000A0424FF0010E0EFA0CFE0CF5E07CC2F811
:1016800008E54FF0030E42F82CE0C0F80815C0F84A
:101690001035242202FB08F2B318C3F804902B691A
:1016A000B350B9F1000F2FD04FF488712A7FFFF7A4
:1016B000D1FE20684FF49071FFF7CCFE20684FF404
:1016C0009271FFF7C7FE20684FF4A271FFF7C2FEC8
:1016D0004FF4AC712068FFF7BDFE23681A49C3F8C8
:1016E0000413190B43F307335201002BD2B21CDB56
:1016F0001648C51885F8002301225B0901F01F0177
:1017000002FA01F140F8231023680822C3F80025EB
:10171000242303FB08660023C6E906337361012313
:1017200086F820303846BDE8F883094B01F00F01F8
:101730005A54E9E70827F5E71127F3E7B405002035
:1017400085140000000300501003420000E100E097
:1017500014ED00E00279044B242101FB02335869A7
:10176000003818BF01207047B405002001F0604325
:10177000B3F1005F2DE9F0470646884692463BD11B
:1017800090F80490FFF7E6FF0446002836D11D4F7D
:101790003068242505FB09754FF49071C5F814A035
:1017A000C5F80880FFF756FE4FF4AC713068FFF7BC
:1017B00051FE33686A69A968C3F84415C3F848251F
:1017C00001229A606A68DAB9D3F82021D3F8580167
:1017D0001AB90028F8D00F2007E00028FBD1012219
:1017E000DA60D3F85821002AFBD0242303FB0977C1
:1017F00000237B61BDE8F0871020FBE71120F9E7AB
:101800002046F7E7B4050020F8B501F06043B3F1D6
:10181000005F04460F465ED10379304D242101FB61
:101820000351496821B100684FF40476C0F8086399
:10183000242000FB03539E6956B1D869002839D093
:1018400021B123684FF40472C3F80423112030E05F
:101850009A61DF60DE6120684FF48871FFF7FAFD5E
:1018600020684FF4A271FFF7F5FD2368C3F83475C3
:10187000C3F8382516BB01221A602479242202FB02
:10188000045252680ABBD3F81011D3F84421D3F89C
:101890002401114302D10028F5D00A46242303FB7A
:1018A00004550023984218BF03209A42AB6118BF29
:1018B0000F20F8BD1F61DA610126CCE7D3F80022C2
:1018C00042F02002C3F80022D7E74FF40472C3F8B5
:1018D00004230020EDE71020EBE700BFB405002053
:1018E00000F1804000F5C040002382B0036003682F
:1018F0000193019B02B0704703681F2B83BF03F065
:101900001F03036001484FF0A040704700030050E0
:1019100007B5019001A8FFF7EFFF019B00EB8300E3
:10192000D0F8003723F44033C0F80037D0F8003740
:1019300043EA0141C0F8001703B05DF804FB000062
:10194000054B4FF0FF32072843F8202084BFC01812
:1019500080F84C20704700BFD805002038B51E49DC
:1019600091F85B30ABBB4FF6FF70FF245A09012A98
:101970000CBF02464FF0FF3203F01F05EA40D207CA
:1019800048BFCA1803F1010348BF82F82440302B36
:10199000ECD10024E0B20134FFF7D2FF092CF9D1D9
:1019A0000E4B0022C1F855209A800D4BE02083F8A1
:1019B0000603402018604FF4BE70FFF791FF094BFB
:1019C0004FF00040C3F80403012381F85B30104658
:1019D00038BD0820FCE700BFD80500202D060020F8
:1019E00000E100E000600040F7B53D4F3B180446C1
:1019F00093F92430002B71DA8B78C3F34003002B6A
:101A00000BBF0825002509200820854202D10420AB
:101A100003B0F0BD57F82560013647D138196EB2D2
:101A200047F8252080F8246013B97B1983F84C40CF
:101A30008B785A071AD4D8073AD501A80194FFF732
:101A40005BFF019B00EB8300D0F8003723F002031B
:101A5000C0F800372348E20804F0070C012303FA1A
:101A60000CF310F802C043EA0C03835488780B7817
:101A700010F0020028D0AD0005F1804505F5C04505
:101A80002402D5F8102522F44F3222F44072C5F812
:101A900010251B04D5F8102504F47C5403F44033BE
:101AA0001C431443C5F810450020B1E70135ACE7ED
:101AB00001A84A780194FFF71FFF019B03F5E0732B
:101AC000920040F82320C5E7083E47FA86F797F8CA
:101AD000544044EA831387F8543099E7082097E785
:101AE000D80500202D06002073B5244D2E1804467D
:101AF00096F92420072A1DDD083A45FA82F595F863
:101B000054309B09032B10D1019001A8FFF7F4FE7C
:101B1000019BD0F81015D94001F001010231204697
:101B200002B0BDE87040FFF7F3BE012B0CBF0221ED
:101B30000321F4E7D3B2072B1DD8930003F18043B0
:101B400003F5C043D3F8100540F00100C3F81005B9
:101B500002F1400040B2800080B2FFF7C1FE51B1F7
:101B600096F9243055F823302BB1012303FA02F201
:101B7000034BC3F8042302B070BD00BFD80500209A
:101B8000006000400E4B034493F92420072A02DD35
:101B90000021FFF7BDBED3B2072B10D8930003F18D
:101BA000804303F5C043D3F8101521F00101C3F8B9
:101BB0001015012303FA02F2024BC3F80823704701
:101BC000D80500200060004007B5019001A8FFF78C
:101BD00093FE019BD0F81005D84000F0010003B03F
:101BE0005DF804FB2DE9FF410024CDE90244534D8B
:101BF0004FF48072012102F1804303F5C04390B29B
:101C00001B68012B06D1D5F804330B4202D0FFF735
:101C100067FE0C430432B2F5907F4FEA4101EAD1EE
:101C2000464BD3F87C31012B11D14FF4BE70FFF736
:101C300057FE4FF0A04344F00044D3F82025029211
:101C4000C3F82025D3F820280392C3F82028E3B254
:101C5000D3B13B4F00250126344210D0AB0003F135
:101C6000804303F5C043D3F81005D3F8101557F897
:101C7000253023B1C1F30141C0F305209847013558
:101C8000082D4FEA4606E7D1002C4EDA2C4F2D4E98
:101C900097F954305A1C3AD0C3F3C20104A8014446
:101CA000DAB211F8081C03F03F04012503F0070322
:101CB00005FA03F319422AD001A80194FFF71CFE8C
:101CC000019B03F5E07350F82330C3F30148B8F1EA
:101CD000020F0CBF032102212046FFF719FE01A8C5
:101CE0000194FFF709FE019B9D403B19C0F8205568
:101CF00093F9243057F823304BB19109032904D0CC
:101D0000B8F1020F14D1012901D1204698474FF0B4
:101D1000A043D3F820250292C3F82025D6F8203519
:101D20000393C6F820351343B2D104B0BDE8F08167
:101D3000B8F1030FEBD10229E6E700BF00600040D5
:101D4000D8050020000300507FB503788DF80430DB
:101D50004368029383688DF80C30C3680493036969
:101D6000064A8DF81430064B01A853F8213052F87A
:101D70002110984707B05DF804FB00BF340600202F
:101D800044060020F0B50546174615F804CB124A64
:101D900042F82C70114A42F82C30114B0C460FCBF4
:101DA00085B06E4686E80F002368009323798DF88E
:101DB000053063798DF80630A3680293002FA3895C
:101DC000084AADF80C3008BF3A466346314628460B
:101DD00000F072F805B0F0BD440600203406002083
:101DE000F43F0000491D00001F2886BF054A00F08F
:101DF0001F004FF0A042012303FA00F0C2F80C05C7
:101E0000704700BF000300501F2886BF054A00F03E
:101E10001F004FF0A042012303FA00F0C2F80805AA
:101E2000704700BF00030050D0F8183107B523B346
:101E3000134B984201BF134B1A684FF08043C3F80D
:101E4000002E0023C0F81831D0F81831C87F019354
:101E5000FF28019B03D08B7F63B1FFF7C5FF0023F1
:101E600008460B724B7750F8083B496803B05DF8A1
:101E700004EB1847FFF7C8FFF1E703B05DF804FB78
:101E800000F002405406002001490248FFF7CCBF91
:101E9000580600200030004001490248FFF7C4BF47
:101EA0007C0600200030024001490248FFF7BCBF19
:101EB000A006002000F002402DE9F74F06796E4D94
:101EC00001934FF0240909FB06F905EB090A934633
:101ED0009AF81C2080460C46002A40F0C98007680A
:101EE000664A384652F82610FEF7F8FF01460028E9
:101EF00040F0C08045F809B0019BCAF80430237B4C
:101F00002078012B00F29D80FFF76EFF23781F2BB6
:101F100086BF03F01F035A4A4FF0A04203F5E07357
:101F2000012042F8230094F80190B9F1FF0F00F06E
:101F30008B804846FFF758FFB9F11F0F8BBF09F0A0
:101F40001F034B464E4A4FF0A04203F5E0730320B7
:101F500042F82300A378FF2B79D01F2B8BBF03F00F
:101F60001F021A4646484FF0A04002F5E0724FF0BB
:101F7000040C40F822C09A46242202FB065282F842
:101F80002030E078D077FF2816D02379002B61D05D
:101F9000FFF72AFFE3781F2B86BF03F01F03384AA1
:101FA0004FF0A04203F5E073032042F823002423FE
:101FB00003FB065322799A772378C7F80835A3687C
:101FC000C7F80C95C7F810A5C7F82435637B227BAA
:101FD000003B18BF0123022A3FD0032A40D0012A28
:101FE00001D143F00203C7F85435A379C7F8C035CF
:101FF0000723C7F8003524237343EB58B3B1D8F84F
:102000000030627943F3073052010028C3F30733ED
:10201000D2B228DB1B4C271887F800230122400985
:1020200003F01F0302FA03F344F82030242303FBD8
:10203000065500236B7701232B77084603B0BDE8D4
:10204000F08FFFF7E1FE61E74FF0FF3982E74FF0D5
:10205000FF3A91E7FFF7D8FE9CE743F00403C2E79D
:1020600043F00603BFE7084803F00F03C254DDE75F
:102070000821E2E71121E0E75806002010400000A7
:102080000003005000E100E014ED00E038B50579F0
:10209000284C24236B43E35893B103681A0B43F392
:1020A0000733002B0CDB02F01F015B0901228A4081
:1020B0002033214941F82320BFF34F8FBFF36F8FA7
:1020C00024236B43E218E35800687BB11B4BC0F834
:1020D0000833537F53B101234361D0F80431002BFF
:1020E000FBD0242303FB054300225A77242303FB60
:1020F000054393F82030FF2B0BD01F2B86BF03F036
:102100001F030F4A4FF0A04203F5E073022142F88B
:1021100023100023C0F800350A4B984204BF012366
:102120004360FEF7F7FE242303FB054400232377D7
:1021300038BD00BF5806002000E100E05201080051
:102140000003005000F002402DE9F34107795C4E96
:1021500024237B431446F2180D46517F8046002904
:1021600040F0AC80F35823B114F0140F04BF0123E6
:10217000537795E80F004FF0240C0CFB076C0CF123
:102180000C0E8EE80F009CF81F00FF2804D09CF86E
:102190001E30C3B1FFF738FE286820B100F060435D
:1021A000B3F1005F06D1AA6882B102F06043B3F1D7
:1021B000005F0BD0242303FB0766002373771020F6
:1021C00002B0BDE8F081FFF70FFEE5E7D8F8003078
:1021D0006968C3F84405ED68C3F84815C3F83425A9
:1021E000384AC3F83855934223D14FF08042D2F891
:1021F000005E354A1560E1B1344D20F4FF5222F003
:102200001F02AA4249D8C2F34F350144DFF8C0C0CB
:102210000120A840002502F50052914245EA000540
:102220004FEA400001D96245F5D34FF08042C2F831
:10223000005E0022C3F81821D3F818210192019AF8
:1022400014F0010218BF0122C3F8502514F0020255
:1022500018BF0122C3F8402522075CBF01221A6182
:1022600024227A43B258F2B9D3F81821002AFBD0BD
:10227000144A934201BF144B1A684FF08043C3F8CD
:10228000002E242303FB0766F07FFF2803D0B47FD2
:1022900034B1FFF7A9FD002092E74FF48075C4E741
:1022A000FFF7B2FDF7E714F004004FF0400202D050
:1022B000C3F80823EFE7C3F8042381E711207FE781
:1022C0005806002000F0024054060020FFFF0020C6
:1022D000002001204FF08053D3F83001A0F1080313
:1022E00058425841704700004FF08053D3F83021D6
:1022F000082A06D1D3F83431052B02D8024AD05C23
:1023000070470020704700BF22400000024AD2F808
:102310000034002BFBD0704700E0014010B5FFF700
:10232000D9FF40B14FF080430022C3F80C21C3F81D
:102330001021C3F83825FFF7CDFF002846D04FF015
:102340008052654BD2F80414C3F82015D2F8081453
:10235000C3F82415D2F80C14C3F82815D2F81014B9
:10236000C3F82C15D2F81414C3F83015D2F8181489
:10237000C3F83415D2F81C14C3F84015D2F8201451
:10238000C3F84415D2F82414C3F84815D2F8281419
:10239000C3F84C15D2F82C14C3F85015D2F83014E9
:1023A000C3F85415D2F83414C3F86015D2F83814B1
:1023B000C3F86415D2F83C14C3F86815D2F8401479
:1023C000C3F86C15D2F84424C3F87025FFF78CFFCE
:1023D00018B1424B424AC3F88C26FFF785FF18B16B
:1023E000404BFB22C3F81825FFF77EFF70B14FF07A
:1023F00080414FF08053D1F8E42ED3F8583222F0C8
:102400000F0203F00F031343C1F8E43EFFF76CFF24
:1024100020B1354B4FF40072C3F84026FFF75AFF46
:1024200048B14FF08043D3F80024D20744BF6FF087
:102430000102C3F800242D4AD2F8883043F4700317
:10244000C2F88830BFF34F8FBFF36F8F4FF08053C8
:10245000D3F83021082A0ED1D3F83431052B02D815
:10246000234AD35C3BB14FF01023D3F808224FF03E
:102470008043C3F858254FF01023D3F80022002AD8
:1024800003DBD3F80432002B22DA1A4901234FF080
:102490001020C1F804351224FFF738FFC0F80042BD
:1024A000FFF734FFC0F80442FFF730FF0023C1F804
:1024B0000435FFF72BFFBFF34F8F0C490E4BCA6853
:1024C00002F4E0621343CB60BFF34F8F00BFFDE720
:1024D0000A4B0B4A1A6010BD00C00040005000407B
:1024E0004881030000F000400090024000ED00E051
:1024F0001C40000000E001400400FA051400002028
:102500000090D003014B1888704700BFC40600201C
:10251000014B1880704700BFC4060020014B58884B
:10252000704700BFC4060020014B5880704700BFB1
:10253000C4060020024B5A8810435880704700BFE1
:10254000C406002070470000034A938F0020013327
:10255000938701F0C1BB00BFF80D00207047000059
:1025600008B500F0E9FE4FF4001200214FF4A0205E
:1025700000F04AFD00221146054800F069FDBDE863
:10258000084004484FF6F172002100F061BD00BF21
:102590000C0005000800050070B5FFF7BFFF10F044
:1025A000020F214C06D0762323804BF20B0363806D
:1025B0000023A380FFF7B2FF430604D5DA2323806C
:1025C00000236380A380FFF79DFF4FF6FF736081B8
:1025D0004FF46172154823812E2101F07CFC002507
:1025E000B5F5617F13DB4FF4617270210F4801F084
:1025F00072FC0D49002240F2923000F093FF00225D
:10260000BDE87040114640F2923000F0B7BFC5F50A
:102610006176642E28BF6426AAB26119B0B200F0B8
:1026200081FF3544DCE700BF640A0020720A002005
:1026300003464FF6FF720248002100F0FFBD00BFC5
:102640000C000500C043002382B21946014800F087
:10265000F5BD00BF0C00050010B5094C0220FEF7C7
:10266000F2F844F0010400F07BFA00F0CBFB4FF4E9
:102670007A40A04723464FF47A40BDE810401847FF
:102680003040000010B5FFF749FF020601D501F008
:102690007DF9FFF743FF430601D4002010BD094B2D
:1026A000094C1B684BB901F071F9A36A002BF4D0F7
:1026B000184401F097FA0120F0E701F063F9E36AAA
:1026C000F4E700BF600A0020F80D002070B5FFF7A6
:1026D000D9FF194C19491A4E012300220546322010
:1026E00084F8303000F01EFF164933680A689342C0
:1026F00018D30A320A6000224FF46170114600F0CC
:102700003DFF114800F060FF0C4B3268C3F8022017
:10271000284601F06DFA20B1B4F84A300133A4F82C
:102720004A3070BD002201334FF4617011463360AE
:1027300000F024FF0548E5E7F80D0020640A0020BA
:102740005C0A0020180000201C0000202C00002043
:1027500010B5FFF7E3FE430616D50C4C0C4A236870
:10276000118C01338B42236006D292F830301BB1BA
:10277000BDE81040FFF7AABF064800F025FF002083
:1027800001F0AAFA0023236010BD00BF600A0020F8
:10279000F80D00201C00002008B5FFF773FF01F0C2
:1027A0009BFA18B1024AD38E0133D38608BD00BF0D
:1027B000F80D002008B5FFF7B1FE420601D5FFF77E
:1027C00085FFFFF7ABFE030603D5BDE80840FFF722
:1027D000E3BF08BD064A074808B5938E01339386C8
:1027E0006421002201F09AF8BDE80840FFF7E2BF3B
:1027F000F80D0020C806002013B5FFF72DFF00F0EC
:10280000D3F900F029FB022000F0F8FA01F062F998
:102810000028FBD0002001F0CDF8013000D1FEE708
:10282000002400F0DFF8104B104A11491148CDE99F
:10283000004401F03BF9104801F046F921460F48E9
:10284000012201F08EFA4FF0C0722146442000F0C0
:10285000DBFBFFF785FE0A4800F038FB02B0BDE85D
:102860001040FFF799BE00BF492500005D2500001C
:10287000D52700005127000045250000F0D30100B6
:10288000E53A000013B50E4B186800901B798DF8DF
:1028900004306846FEF73CF90024052809D134B11C
:1028A000084B0022612083F83020FEF747F902B080
:1028B00010BD01340DEB0400FEF72AF9EDE700BF6F
:1028C00028400000F80D002038B5FFF727FE8207EA
:1028D0001CD5134C134D214600221E2000F022FE71
:1028E00000221146782000F049FE002001F080F916
:1028F000D4F802300133C4F8023045F001054FF43A
:102900007A744FF47A40A847013CFAD1FFF706FEEB
:10291000430603D5BDE83840FFF7B4BF38BD00BF5C
:10292000640A00203040000010B504460020FFF784
:10293000FBFD012C0BD0022C0BD064B94020FFF71B
:10294000F9FD4FF48060BDE81040FFF7F3BD802033
:10295000F9E72046F7E710BD10B50F4B0F4A03F11A
:10296000100153F8040B42F8040B8B42F9D10C4BC5
:1029700064221A8041F288321A840A4A07CA03F193
:10298000140484E807000022074983F83020C3E9D3
:102990000A115A6210BD00BF2C000020FA0D002061
:1029A000F80D00203C0000208023110010B50B48DA
:1029B00000F00AFE044600B1FEE7094801F03EFAC5
:1029C000FFF7ACFD10F0C00F06D0204601F084F9EF
:1029D000BDE81040FFF7C0BF10BD00BF2C000020B5
:1029E0003C00002008B54FF08053154AD3F8A430BE
:1029F00093420ED0134A934218D0134A934211D1F6
:102A00000020FFF791FF114B0922DA701A710220A2
:102A100006E00220FFF788FF0C4B0922DA70002045
:102A2000FFF776FDBDE80840FFF7C0BF0020FFF7C5
:102A30007BFF064B0A22DA7009221A710120EFE7A8
:102A4000840633F52EBD65F95D41EC292C0000208C
:102A500008B50120FDF7F7FEFFF7CEFE00F00CF8F9
:102A6000FFF732FFFCE70378022B02D14068FDF745
:102A700009BF012BFAD0704730B50E4D0FCD8BB08A
:102A800004AC0FC495E803000B4B0C4A00934FF4C1
:102A9000807384E80300CDE902230193084A0723E9
:102AA000694604A8FDF7DCFF08B1FDF7EBFE0BB0AB
:102AB00030BD00BF384000006C0E00206C0F0020BD
:102AC000672A000010B52A20FFF77EF8044610B1EF
:102AD0002A20FFF757F8204610BD18B101212A20FF
:102AE000FFF702B87047000020B1034B800143F0AC
:102AF00001031847704700BF50400000014B0122FE
:102B00001A7070472D12002010B5104C2378012B3D
:102B10001BD0022B02D10E48FFF7B8FA0D490E4A1E
:102B20000023A1F11C00FFF72DF908B1FDF7AAFE63
:102B300001232370094C4FF47A401C43A0472346DD
:102B40004FF47A40BDE81040184710BD2C12002009
:102B50000012002018120020FD2A00006040000032
:102B60000E4B03211970012119730D49596002217F
:102B70004FF0A05019724FF08041C3E9041009488A
:102B800059624FF02C0C0022C3E906C04FF60270C8
:102B900018841A8583F82C20FFF7B6BFFC1100209B
:102BA00000F002402F2D2E2C10B5114C2378022B53
:102BB0001CD0012B02D10F48FFF768FA0E490F4ACB
:102BC0000023A1F11C00FFF7DDF808B1FDF75AFE64
:102BD000022323700A4C4FF47A4044F00104A047CA
:102BE00023464FF47A40BDE81040184710BD00BF9F
:102BF0002C1200200012002018120020FD2A0000D4
:102C0000604000002DE9FF4786180136C82E0446B3
:102C100017469A4634D81B4D95F82C80B8F1000F12
:102C2000FCD11123DFF86C9085F82C306B680722FB
:102C3000C3F80025484622464C4401F023F93A46A1
:102C40005146204601F01EF99DF83030E3550E4CF8
:102C50000E4B0F4884F8008042466946CDE9009645
:102C6000CDE90236FFF770FA2378002BFCD06B68B1
:102C70000020C3F8000585F82C0004B0BDE8F087FB
:102C80000420FAE7FC1100202D120020341100204E
:102C9000001200206C1000202DE9FF4700EB020815
:102CA000B8F1C80F054616469A462FDC184C94F822
:102CB0002C70002FFDD11123DFF8649084F82C30A4
:102CC00063680722C3F8002548462A4601F0DAF86F
:102CD0003246514609EB050001F0D4F80D4D0E4B7C
:102CE0000E482F703A466946CDE90098CDE9023882
:102CF000FFF72AFA2B78002BFCD063680020C3F87A
:102D0000000584F82C0004B0BDE8F0870420FAE741
:102D1000FC1100202D120020341100200012002090
:102D20006C1000202DE9F04F00EB0209B9F1C80F3B
:102D300085B004461646984639DC1E4D95F82C7031
:102D4000002FFDD11123DFF874A085F82C306B68BB
:102D5000DFF86CB00722C3F800255046224601F088
:102D600091F8324639460AEB040001F0B4F8CDE997
:102D700000A9DFF850A010488BF800703A46694669
:102D8000CDE902A9FFF7E0F99BF80030002BFBD05A
:102D900032460AEB0401404601F074F86B680020EB
:102DA000C3F8000585F82C0005B0BDE8F08F0420BD
:102DB000FAE700BFFC110020001200206C10002078
:102DC0002D1200203411002038B5054D044645F081
:102DD00001054FF47A40A847013CFAD138BD00BF45
:102DE00070400000012300F01F0003FA00F0024BC6
:102DF000C3F80C05704700BF0003005008B1FFF78F
:102E0000E3BF704707B5FEF7A9FD08B1FDF73AFD2E
:102E10000E4B1A889B78ADF804208DF806300C4ACA
:102E2000012301A92A208DF80530FEF7DDFD08B148
:102E3000FDF728FD00212A20FEF756FE054B032250
:102E4000C3F82C2703B05DF804FB00BF6640000008
:102E5000C92E00000003005010B5094C0323C4F82C
:102E600020372820FFF7BEFF0220FFF7ADFF002329
:102E7000C4F820370220BDE81040FFF7A5BF00BF0F
:102E8000000300502A20FEF77DBE01212A20FEF714
:102E90002BBE08B52A20FEF797FE08BD024BD3F8DB
:102EA0001005C0F3802070470003005010B5054C9A
:102EB000FFF7F4FF00B910BD2368002BF8D0984746
:102EC000F6E700BF30120020FFF7F0BF38B5054627
:102ED000FFF7DFFF0446FFF7D5FF044BE4B21D60A8
:102EE0001CB9BDE83840FFF7D0BF38BD3012002014
:102EF00030B5054C00238B4201DB104630BDC55C6C
:102F00006A400133A25CF6E77C1200202DE9FF4104
:102F10000144064601F07F00BDF82850C1F304418A
:102F2000840044EA412445EA04010C0A98468DF8DD
:102F30000C408DF80D1017465AB9720062F07E02EF
:102F40008DF80C20012485B385F40045032D0CD9A0
:102F5000FEE718B9B5F5004F06D02DB344F0400494
:102F60008DF80C400224EEE70124224A1268127DFB
:102F70009AB10022214603A8FFF7BAFF394602465C
:102F80004046FFF7B5FF434600903A4603A9204666
:102F9000FFF738FE04B0BDE8F08143463A4603A986
:102FA0002046FFF779FEF5E70124124D3A464346E5
:102FB00003A92046FFF7B6FE2A68127D022AE9D14E
:102FC000182EE7D02146002203A8FFF791FF3946CB
:102FD00002464046FFF78CFF00210446182000F00F
:102FE000A7F88442D6D02B685B6A002BD2D09847D2
:102FF000D0E700BF4800002013B54FF40044009410
:10300000FFF784FF02B010BD07B5130A8DF8042046
:103010008DF80530130C120E8DF806308DF8072050
:1030200001AB042289B2FFF7E7FF03B05DF804FBB0
:1030300008B5002211460548FFF7E6FF0022BDE86B
:10304000084011464FF4E020FFF7DEBF48000700BC
:1030500007B58DF80420120A8DF8052001AB022275
:1030600089B2FFF7C9FF03B05DF804FB02484FF4D3
:1030700000720021FFF7ECBF04001100024841F686
:1030800022020021FFF7E4BF0400110007B589B256
:103090008DF807200DF107030122FFF7ADFF03B004
:1030A0005DF804FB13B500240094FFF72FFF02B076
:1030B00010BD13B501AC0422234689B2FFF7F2FF1D
:1030C00000200322A35C013A03EB0020FAD202B0F5
:1030D00010BD000038B50B4D0446012228460021E2
:1030E000FFF7B6FF224608480021FFF7B1FF284648
:1030F00000210222FFF7ACFFBDE838400348002161
:10310000FFF7D7BF08000B0004000B0010000B00F6
:1031100007B5022201AB89B2FFF7C4FF9DF8053065
:103120009DF8040000EB032080B203B05DF804FBBF
:1031300007B501220DF1070389B2FFF7B3FF9DF830
:10314000070003B05DF804FB1FB5140A8DF80820D2
:103150008DF80940140C120E8DF80B201A0A8DF808
:103160000C308DF80D201A0C1B0E8DF80F3048F224
:1031700003038DF80E200093082202AB89B28DF86C
:103180000A40FFF7C3FE04B010BD0000052806D1B9
:10319000402306486FF400520021FFF7D5BF0928ED
:1031A00002D14FF40153F4E7704700BF08000B0051
:1031B00038B54FF0FF3205460C4611484FF0082352
:1031C0000021FFF7C1FF4FF060130D484FF0FF32B1
:1031D0000021FFF7B9FF052D0CBF0A4B0A4B4FF03A
:1031E000FF3200214FF4E020FFF7AEFF34B1BDE81D
:1031F0003840064A06480021FFF706BF38BD00BF29
:1032000048000700003C0002001C00020011010100
:1032100014000700052806D1054B06484FF0FF3281
:103220000021FFF791BF092801D1034BF5E7704753
:10323000003C000204000700001C00021FB58DF8CE
:103240000E301B0A8DF80C208DF80F30120A48F250
:1032500002038DF80D200093042203AB89B2FFF71F
:1032600055FE05B05DF804FB10B509484FF4C07376
:103270004FF6FF720021FFF7E1FF064B06481B687F
:10328000BDE810401B7A4FF6E0720021FFF7D6BF71
:1032900008000B00480000201F0011001FB58DF82A
:1032A0000D3048F201038DF80C200093022203AB8D
:1032B00089B2FFF72BFE05B05DF804FB012810B5BD
:1032C000044609D1FFF7D2FE2346FF222146BDE87E
:1032D00010401748FFF7E2BF022817D11548032313
:1032E000FF220021FFF7DAFF11484FF400036FF4CB
:1032F00080720021FFF728FF21460D4800237F221E
:10330000FFF7CCFFBDE81040FFF7B0BE094801232E
:10331000FF220021FFF7C2FF4FF400036FF4807219
:1033200000210348FFF710FF00237F220221CEE790
:10333000080011000400110003484FF480334FF0DF
:10334000FF320021FFF700BF0400110000210846F2
:10335000FFF7AFBE05282DE9F84336D0204C214EAB
:10336000214FDFF8CC80DFF8CC90204A254620485A
:103370000021FFF749FE4A461E480021FFF744FEA0
:1033800042461D480021FFF73FFE3A461B480021F8
:10339000FFF73AFE32461A480021FFF735FE2A466B
:1033A00018480021FFF730FE224617480021FFF79A
:1033B0002BFE164A16480021FFF726FEBDE8F8430B
:1033C000144A15480021FFF71FBE144C144D154E2A
:1033D000154FDFF86480DFF86490144AC7E700BF38
:1033E000B5AF02007DAF02003EAF0200FEA80200B2
:1033F000380003003C0003004000030044000300C9
:10340000480003004C00030050000300400200107D
:103410001C00030089A46D1B20000300F5CF0100F0
:10342000B5CF010036CF01007EC70100FDC001000D
:10343000FEA5020036AC0200BEC601003EC401007B
:1034400038B5224A2248234D0021FFF7DDFD2048F0
:103450001023FF220021FFF721FF03241420FFF790
:1034600043FB00212846FFF763FE01282CD0013CD6
:1034700014F0FF04F2D10124002211461448FFF792
:1034800005FE144801220021FFF700FEFF22012360
:103490000F480221FFF702FF00210F48FFF709FE46
:1034A0006FF0604398424FF000010C4814BF644233
:1034B0004FF0FF34FFF7FDFD6FF06043984214BFFB
:1034C00020464FF0FF3038BD0024D5E70100020050
:1034D0000C00040020000400140004001C00040080
:1034E000012870B505464FF000040CD121460C4868
:1034F000FFF70EFE40F2051304464FF6FF72084830
:103500000021FFF79BFEFFF79BFF012D064605D12B
:103510000023034822461946FFF790FE304670BD4F
:103520004800070037B514460244B2F5806F0546DF
:103530000B461BDA7F2C08D8024621464FF4A01018
:10354000FFF75AFD002003B030BD0A480191142254
:103550000021FFF759FD084822460021FFF754FDDE
:10356000019B2A4600214FF4E810E9E74FF0FF30B5
:10357000E9E700BF04001F0008001F007F2910B505
:1035800040EAC22308D843EA0143BDE810400A4A92
:1035900000212420FFF7D8BD803143EA01432420D5
:1035A0000021054AFFF7D0FDBDE8104000214FF48F
:1035B0000020FFF7BDBD00BF00F400FC0246012162
:1035C0002820FFF763BD00002DE9F0470379067856
:1035D000182B044600F2018190F80390B9F1180FFE
:1035E00094BF4FF000094FF001096378E179B44FBF
:1035F0009FEDB47A013B0129DBB20CBF1020002003
:10360000062B9CBFB04A32F913803B681A8A1973A3
:1036100022F0E0021A82657B05F102024FF00105FB
:1036200005FA02F51FFA85FA4FEACA0A07EE90AAD0
:10363000F8EEE77A88BF4FF4807867EE877AFDEE80
:10364000E77A17EE902A5A82217B5975227AA37B5A
:10365000520102F0200242EA03420B0303F430431A
:1036600013430343994A00211020FFF76DFDB9F180
:10367000000F00F0B5803A689548138A43F0600364
:10368000138200214FF440636FF4C052FFF75CFDDA
:10369000904840F206320021FFF7B6FC00221146A6
:1036A0004FF00E10FFF7B0FC8B4A8C480021FFF75B
:1036B000ABFC8B487D220021FFF7E8FCA378FC22BD
:1036C00000214FF4C020FFF7E9FD6A1ED2B24FF48B
:1036D00000300021FFF7DAFC6378072B0CBF0820CD
:1036E0000020FFF76BFF237B7E4803F00303032BCF
:1036F0000CBF7D4A7D4A0021FFF786FC00217C48F3
:10370000FFF7D7FC2379E2781B02D200D2B203F490
:10371000F8531343627920F4FF50520020F01F0049
:10372000092E02F0060208BF40F001001A430243CE
:1037300000216F48FFF768FC6378A2791B0343EA16
:10374000822300216FF474422420FFF7FDFC63897B
:103750000BB981236381628902214FF4C020FFF7F6
:1037600077FC092E7CD1634A63480021FFF74CFCAB
:1037700040F63C7200214FF41020FFF769FC5F4ACD
:103780005F480021FFF740FC5E4814220121FFF74B
:103790007DFC5D480E220221FFF778FC5B48812208
:1037A0000021FFF773FC022200214420FFF76EFC8A
:1037B0000120FFF783FD06251420FFF795F900216E
:1037C0004420FFF7B5FC83076FD4013D15F0FF05DA
:1037D000F2D14FF0FF30BDE8F0874FF0010904E768
:1037E000237BE3B1627B4A4B33F81230A27B012A80
:1037F0002AD84FF435625343990CC3F3CA1303F527
:103800008063B3F5006F28BF01318BB2334803F0FA
:103810007F034FF680720221D044FFF70FFDB8F10D
:10382000FF0FC8BF3A682A48C3BF138A43F020037A
:1038300013824FF4A053C8BF4FF480636FF4C0529B
:103840000021FFF781FC39E71A01C2F30A0202F5F1
:103850008062DB09B2F5006F28BF01339BB2D5E768
:103860002C4A25480021FFF7CFFB41F63C7200218E
:103870004FF41020FFF7ECFB86E73B685B7A012BE7
:103880000FD170B2FFF782FC23484FF4C84348F2CF
:10389000FF120021FFF7D2FCBDE8F0470120FFF73F
:1038A0001FBE3046FFF756FDEEE72379093B0F2B8D
:1038B000E3D900231848FE221946FFF7EFFCEBE797
:1038C000480000206666663F76400000CF4FFCFF50
:1038D00008000B000C000E000A5A0C0012000E002B
:1038E00016000E000C000600CC355FAF4C585FAFE1
:1038F000140001003400011C1C00070033A8B508A7
:103900001000070050000700180007000800090019
:10391000844000003411071C1800030037B514461A
:10392000154A1268D27B032A04EB010203460CBF3E
:103930004FF498104FF49010B2F5806F0D4619DADD
:103940007F2C06D80A46214603B0BDE83040FFF779
:10395000A9BB020C002109480193FFF755FB084859
:1039600022460021FFF750FB019B2A4600214FF41D
:10397000E810E9E703B030BD4800002004001F0054
:1039800008001F0001217420FFF793BB0121642070
:10399000FFF78FBB08B5FFF7D9FC054B984205D060
:1039A000103BC01A18BF4FF0FF3008BD0020FCE7E5
:1039B0001203CADE2DE9F041394C236800220221AE
:1039C000C3E90A22C3E90C22C3E90E22DA73198281
:1039D0009A825A810546FFF7DDFF064600285BD133
:1039E0000420FFF777FB80460520FFF773FB0746AF
:1039F0000A20FFF76FFB2268C0F304401072B8F191
:103A0000000F03D017B108B1FFF72EFC2020FFF7FD
:103A100061FB244B984223680CBF01220022E80678
:103A20005A7204D506202768FFF754FB3860A906B0
:103A300004D507202768FFF74DFB78606A0604D598
:103A40000820FFF747FB236898722B0604D509204E
:103A5000FFF740FB2368D8722368DA7A0AB9852217
:103A6000DA729A7A0AB974229A721F20FFF732FB2F
:103A7000236858731E20FFF72DFB236810F07F008A
:103A80000ABF2E2298739A739A7B07480021FFF78A
:103A9000FDFA3046BDE8F0814FF0FF36F9E700BF90
:103AA00048000020400200101400090010B5054C29
:103AB0002468C4E90C23029BA363039BE363C4E96A
:103AC0000A0110BD48000020014B1B685864704774
:103AD0004800002008B502214420FFF719FBC0F37D
:103AE000002008BD70B500214420FFF7E2FA002154
:103AF00004464FF4F810FFF71BFBE205054611D50D
:103B00000420FEF795FD0220FEF792FD44204FF4BD
:103B100080720021FFF778FA304B1868036C0BB104
:103B200018309847A30508D50220FEF78BFD4FF407
:103B3000007200214420FFF767FA660418D5274E6B
:103B40000420FEF77FFD4FF4DE4200214420FFF702
:103B50005BFA3368002183F820104C20FFF7D8FA75
:103B60003368C0F30900D883DA6A03F1180090477C
:103B7000E0060AD50220FEF75BFD0820FEF758FD9F
:103B8000F82200214420FFF781FAA10602D5022085
:103B9000FEF758FD22060CD50820FEF753FD442001
:103BA000F8220021FFF772FA0C4B1868836A18306C
:103BB0009847EB0611D5094C094A00214420FFF72C
:103BC00023FA23685B6B43B10420FEF73BFD2068BA
:103BD000BDE87040436B1830184770BD48000020A6
:103BE00000900524024600212C20FFF70DBA0000AA
:103BF00037B510F01D0500F0020348D010F00102A7
:103C000023D0F3B100231A4619460D20FFF7F4F92B
:103C100003214420FFF78CFA10F0080406D12D4848
:103C20002146FFF746FAB0F5502F07D100231A4678
:103C300019461846FFF7E0F94FF0FF34204603B06D
:103C400030BD1A4619460320E0E710F0080108D0FD
:103C50001BB1134611460F20D8E71A461946072014
:103C6000D4E710F0100008D01BB10B460A460E2016
:103C7000CCE71A4619460520C8E723B10346024699
:103C800001461020C2E71A4619460920BEE710F087
:103C9000200411D03BB12B462A4629461120FFF7BC
:103CA000ABF92C46CAE71A46194601930B20FFF7D9
:103CB000A3F9019B1C46C1E733B1234622462146A6
:103CC0000C20FFF799F9B9E71A461946019301202C
:103CD000EDE700BF30000F0010B5044638B90346C9
:103CE000024601460220FFF787F9204610BD20F06A
:103CF000020008282FD006DC01280BD0042825D08C
:103D00004FF0FF34F1E71028FAD100231A46194684
:103D1000062003E000231A4619460420FFF76CF939
:103D200003214420FFF704FA10F0080017D0002305
:103D30001A4619461846FFF75FF914F00203DFD15F
:103D40001A4619460220FFF757F9D9E700231A4609
:103D500019460A20E2E700231A461946DEE7044620
:103D6000C3E7F8B5164605460C46FEF7ABFE022E35
:103D700007460ED12A4600213C20FFF745F922468E
:103D800000214020FFF740F93846BDE8F840FEF733
:103D9000A4BE012E0ED12B464FF0FF3200213C2055
:103DA000FFF7D2F923464FF0FF3200214020FFF702
:103DB000CBF9E9E700231946EA433C20FFF7C4F9B1
:103DC0000023E2431946F1E713B504460191FFF7DA
:103DD00055F900210198FFF7EBF90198FFF71AFA5E
:103DE000C4F30B021148124C0021FFF731F91048BF
:103DF0000323FF220021FFF751FA00212046FFF79D
:103E000097F910F00101F8D10A460A480191FFF72D
:103E1000FBF8FFF70DF9FFF729F901990648FFF7BD
:103E200087F900F03F0002B010BD00BF1C00080081
:103E300010000800040007001C000700018910B5ED
:103E4000044651B902780C48FFF720F962680B4824
:103E5000BDE810400021FFF7D7B800210848FFF760
:103E600067F910F0010F08BF0521208918BF09214B
:103E7000FFF7AAFFEAE700BF1C0007000C000100E3
:103E800014000100844640EA010313F0030F18D127
:103E90008446202A0BD32DE9F007B1E8F807A0E803
:103EA000F807A2F12002202AF7D2BDE8F007042A81
:103EB00007D351F8043B40F8043BA2F10402042A62
:103EC000F7D2002A05D011F8013B00F8013B013A76
:103ED000F9D1604670478446002A2DD010F0030FB8
:103EE00004D000F8011B013A26D0F7E7C9B241EA35
:103EF000012141EA0141202A12D3A2F120022DE939
:103F0000F0030B460C460D460E460F468846894682
:103F1000A0E8FA03203AFBD2BDE8F00320320BD030
:103F2000042A05D340F8041B043A05D0042AF9D228
:0C3F300000F8011B013AFBD1604670470D
:103F3C00EB3F000000000000DC3F00000000000030
:103F4C000A40000000000000E03F000000000000FC
:103F5C00E53F000000000000993F00000000030353
:083F6C00044000000000000009
:103F74004C000020140100201C01002054000020EB
:043F84001800000021
:103F88004261636B656E647320666C757368656403
:103F980000617070000D0E0F10466174616C206531
:103FA80072726F720053797374656D2072657365F0
:103FB80074000000FFFFFFFFFFFFFFFFFFFFFFFF91
:103FC800FFFFFFFF00000000000000000000D60116
:103FD80007010000505253005541525400554152B8
:103FE8005445004750494F5445000000FFFFFFFF6C
:103FF8000007FF000000004000000000636C6F63D2
:104008006B005350494D0000891E0000991E0000A6
:10401800A91E0000000000000101010000000000CE
:1040280000000000000000000338FDD870470000C1
:10403800080000000600000005000000070000005E
:104048000000000000E0D7010338FDD870470000E9
:1040580000000000000000000338FDD87047010090
:1040680002000000000000000338FDD8704740003F
:104078000001000120008000000148000004A8059C
:0C4088000008500B0010A11600200000E2
:10409400000000000020004000000000002000405C
:1040A400000000000090D0030A000000050200098F
:1040B40009010101010000040001000005020009DA
:1040C4000A010101010000040001000034000000A5
:0C40D400FDFDFDFD000000003412002086
:040000030000037581
:00000001FF
